S00C00006D61696E2E7372656373
S113000000E4FF1FD3050000D1050000D105000066
S113001000000000000000000000000000000000DC
S1130020000000000000000000000000D1050000F6
S11300300000000000000000D1050000D105000010
S1130040D3050000D3050000D3050000D30500004C
S113005000000000D3050000D3050000D305000014
S1130060D3050000D3050000D3050000D30500002C
S1130070D3050000D3050000D3050000D30500001C
S1130080D3050000D3050000D3050000D30500000C
S1130090D3050000D3050000D305000000000000D4
S11300A0D3050000D3050000D3050000D3050000EC
S11300B0D305000000000000D3050000D3050000B4
S1130400FFFFFFFFFFFFFFFFFFFFFFFFFEFFFFFFF9
S11304100A4B002188225201995009495858013A3F
S1130420FF3A02435A5080225200064B5A61064B4F
S11304305A6920210A435A61596070470070044088
S11304403810000000C00440C0F00F400B4B0021E6
S11304508822520199500A49585880229201024335
S11304605A5080225200074B5A67074B5A69802121
S113047089050A435A6159607047C04600700440B8
S11304803810000000D0044000F10F402022014B3E
S11304909A607047C0F00F4080229205014B9A6029
S11304A07047C04600F10F402022014B5A6070474C
S11304B0C0F00F4080229205014B5A607047C0463D
S11304C000F10F400849094A885880231B0103435F
S11304D08B500422FF32064BDA60064A5369082126
S11304E08B4353617047C0460070044038100000CD
S11304F000B0044080F00F400849094A885880231E
S11305001B0103438B500422FF32064B1A63064A35
S1130510536906490B4053617047C046007004405C
S11305203810000000B0044080F00F40FFEFFFFFE0
S1130530034B1B691B0701D4012070470020FCE713
S113054080F00F40034B1B69DB0401D4012070478A
S11305500020FCE780F00F40F8B5FFF759FFFFF7E4
S113056075FFFFF7AFFFFFF7C7FF00250024002743
S1130570002611E073425E41F6B2002413E0FFF757
S1130580E1FF0028FBD133003B431CD1FFF77EFF82
S1130590FFF790FF01250124FFF7CAFF002806D0CA
S11305A00134022CE6D0FFF7C3FF0028FBD1FFF78C
S11305B0C9FF0028E7D00135022DE0D17B425F411D
S11305C0FFB20025DBE7FFF767FFFFF76DFFE3E707
S11305D0FEE710B50A4B0B4A03E0116819600433B7
S11305E0043209498B42F8D3084B02E000221A6016
S11305F00433074A9342F9D3FFF7AEFF10BDC04658
S113060000E0FF1F1C06000000E0FF1F00E0FF1FCA
S107061000E0FF1FE4
S1070614F8B5C0462B
S1070618F8B5C04627
S9030410E8
